{
  "contractName": "FileStorage",
  "abi": [
    {
      "anonymous": false,
      "inputs": [
        {
          "indexed": false,
          "internalType": "uint256",
          "name": "fileId",
          "type": "uint256"
        },
        {
          "indexed": false,
          "internalType": "string",
          "name": "hash",
          "type": "string"
        },
        {
          "indexed": false,
          "internalType": "string",
          "name": "name",
          "type": "string"
        },
        {
          "indexed": false,
          "internalType": "uint256",
          "name": "timestamp",
          "type": "uint256"
        }
      ],
      "name": "FileUploaded",
      "type": "event"
    },
    {
      "inputs": [],
      "name": "fileCount",
      "outputs": [
        {
          "internalType": "uint256",
          "name": "",
          "type": "uint256"
        }
      ],
      "stateMutability": "view",
      "type": "function"
    },
    {
      "inputs": [
        {
          "internalType": "uint256",
          "name": "",
          "type": "uint256"
        }
      ],
      "name": "files",
      "outputs": [
        {
          "internalType": "string",
          "name": "hash",
          "type": "string"
        },
        {
          "internalType": "string",
          "name": "name",
          "type": "string"
        },
        {
          "internalType": "uint256",
          "name": "timestamp",
          "type": "uint256"
        }
      ],
      "stateMutability": "view",
      "type": "function"
    },
    {
      "inputs": [
        {
          "internalType": "string",
          "name": "_hash",
          "type": "string"
        },
        {
          "internalType": "string",
          "name": "_name",
          "type": "string"
        }
      ],
      "name": "uploadFile",
      "outputs": [],
      "stateMutability": "nonpayable",
      "type": "function"
    },
    {
      "inputs": [
        {
          "internalType": "uint256",
          "name": "_fileId",
          "type": "uint256"
        }
      ],
      "name": "getFile",
      "outputs": [
        {
          "internalType": "string",
          "name": "",
          "type": "string"
        },
        {
          "internalType": "string",
          "name": "",
          "type": "string"
        },
        {
          "internalType": "uint256",
          "name": "",
          "type": "uint256"
        }
      ],
      "stateMutability": "view",
      "type": "function"
    }
  ],
  "bytecode": "0x608060405234801561001057600080fd5b50610720806100206000396000f3fe608060405234801561001057600080fd5b506004361061004c5760003560e01c80632bfda31314610051578063439535191461007c578063996d50bf14610091578063f4c714b4146100a6575b600080fd5b61006461005f366004610593565b6100b9565b604051610073939291906105f6565b60405180910390f35b610084610225565b604051610073919061062c565b6100a461009f366004610532565b61022b565b005b6100646100b4366004610593565b6102e6565b6060806000806000808681526020019081526020016000206040518060600160405290816000820180546100ec90610672565b80601f016020809104026020016040519081016040528092919081815260200182805461011890610672565b80156101655780601f1061013a57610100808354040283529160200191610165565b820191906000526020600020905b81548152906001019060200180831161014857829003601f168201915b5050505050815260200160018201805461017e90610672565b80601f01602080910402602001604051908101604052809291908181526020018280546101aa90610672565b80156101f75780601f106101cc576101008083540402835291602001916101f7565b820191906000526020600020905b8154815290600101906020018083116101da57829003601f168201915b5050509183525050600291909101546020918201528151908201516040909201519097919650945092505050565b60015481565b6001805490600061023b836106ad565b90915550506040805160608101825283815260208082018490524282840152600154600090815280825292909220815180519293919261027e9284920190610418565b5060208281015180516102979260018501920190610418565b5060409182015160029091015560015490517f17d21ae0269234ae11a532646bd42c7e4619ba796d8678aa0b86ee206fc65e00916102da91859085904290610635565b60405180910390a15050565b60006020819052908152604090208054819061030190610672565b80601f016020809104026020016040519081016040528092919081815260200182805461032d90610672565b801561037a5780601f1061034f5761010080835404028352916020019161037a565b820191906000526020600020905b81548152906001019060200180831161035d57829003601f168201915b50505050509080600101805461038f90610672565b80601f01602080910402602001604051908101604052809291908181526020018280546103bb90610672565b80156104085780601f106103dd57610100808354040283529160200191610408565b820191906000526020600020905b8154815290600101906020018083116103eb57829003601f168201915b5050505050908060020154905083565b82805461042490610672565b90600052602060002090601f016020900481019282610446576000855561048c565b82601f1061045f57805160ff191683800117855561048c565b8280016001018555821561048c579182015b8281111561048c578251825591602001919060010190610471565b5061049892915061049c565b5090565b5b80821115610498576000815560010161049d565b600082601f8301126104c1578081fd5b813567ffffffffffffffff808211156104dc576104dc6106d4565b604051601f8301601f191681016020018281118282101715610500576105006106d4565b604052828152848301602001861015610517578384fd5b82602086016020830137918201602001929092529392505050565b60008060408385031215610544578182fd5b823567ffffffffffffffff8082111561055b578384fd5b610567868387016104b1565b9350602085013591508082111561057c578283fd5b50610589858286016104b1565b9150509250929050565b6000602082840312156105a4578081fd5b5035919050565b60008151808452815b818110156105d0576020818501810151868301820152016105b4565b818111156105e15782602083870101525b50601f01601f19169290920160200192915050565b60006060825261060960608301866105ab565b828103602084015261061b81866105ab565b915050826040830152949350505050565b90815260200190565b60008582526080602083015261064e60808301866105ab565b828103604084015261066081866105ab565b91505082606083015295945050505050565b60028104600182168061068657607f821691505b602082108114156106a757634e487b7160e01b600052602260045260246000fd5b50919050565b60006000198214156106cd57634e487b7160e01b81526011600452602481fd5b5060010190565b634e487b7160e01b600052604160045260246000fdfea264697066735822122008d217ddb22f53b0a68895c1f7c886e0036837faeb4ab56831fe61cd82f8fd9664736f6c63430008000033",
  "immutableReferences": {},
  "source": "pragma solidity ^0.8.0;\r\n\r\ncontract FileStorage {\r\n    struct File {\r\n        string hash;  \r\n        string name;   \r\n        uint timestamp; \r\n    }\r\n\r\n    mapping(uint => File) public files;\r\n    uint public fileCount;\r\n\r\n    event FileUploaded(\r\n        uint fileId,\r\n        string hash,\r\n        string name,\r\n        uint timestamp\r\n    );\r\n\r\n    function uploadFile(string memory _hash, string memory _name) public {\r\n        fileCount++;\r\n        files[fileCount] = File(_hash, _name, block.timestamp);\r\n        emit FileUploaded(fileCount, _hash, _name, block.timestamp);\r\n    }\r\n\r\n    function getFile(uint _fileId) public view returns (string memory, string memory, uint) {\r\n        File memory file = files[_fileId];\r\n        return (file.hash, file.name, file.timestamp);\r\n    }\r\n}\r\n",
  "sourcePath": "C:\\Users\\VRAJ\\cloud-byte\\contracts\\FileStorage.sol",
  "compiler": {
    "name": "solc",
    "version": "0.8.0+commit.c7dfd78e.Emscripten.clang"
  },
  "schemaVersion": "3.4.16",
  "updatedAt": "2024-09-28T06:10:39.058Z",
  "devdoc": {
    "kind": "dev",
    "methods": {},
    "version": 1
  },
  "userdoc": {
    "kind": "user",
    "methods": {},
    "version": 1
  }
}