{
  "contractName": "UserRegistration",
  "abi": [
    {
      "anonymous": false,
      "inputs": [
        {
          "indexed": true,
          "internalType": "address",
          "name": "userAddress",
          "type": "address"
        },
        {
          "indexed": false,
          "internalType": "string",
          "name": "name",
          "type": "string"
        }
      ],
      "name": "UserRegistered",
      "type": "event"
    },
    {
      "anonymous": false,
      "inputs": [
        {
          "indexed": true,
          "internalType": "address",
          "name": "userAddress",
          "type": "address"
        },
        {
          "indexed": false,
          "internalType": "string",
          "name": "name",
          "type": "string"
        }
      ],
      "name": "UserUpdated",
      "type": "event"
    },
    {
      "inputs": [
        {
          "internalType": "string",
          "name": "_name",
          "type": "string"
        }
      ],
      "name": "registerUser",
      "outputs": [],
      "stateMutability": "nonpayable",
      "type": "function"
    },
    {
      "inputs": [
        {
          "internalType": "string",
          "name": "_name",
          "type": "string"
        }
      ],
      "name": "updateUser",
      "outputs": [],
      "stateMutability": "nonpayable",
      "type": "function"
    },
    {
      "inputs": [
        {
          "internalType": "address",
          "name": "_userAddress",
          "type": "address"
        }
      ],
      "name": "getUser",
      "outputs": [
        {
          "internalType": "string",
          "name": "name",
          "type": "string"
        },
        {
          "internalType": "address",
          "name": "userAddress",
          "type": "address"
        },
        {
          "internalType": "bool",
          "name": "isRegistered",
          "type": "bool"
        }
      ],
      "stateMutability": "view",
      "type": "function"
    },
    {
      "inputs": [],
      "name": "getAllUsers",
      "outputs": [
        {
          "internalType": "address[]",
          "name": "",
          "type": "address[]"
        }
      ],
      "stateMutability": "view",
      "type": "function"
    }
  ],
  "bytecode": "0x608060405234801561001057600080fd5b50610723806100206000396000f3fe608060405234801561001057600080fd5b506004361061004c5760003560e01c80630b4f12f6146100515780636f77926b14610066578063704f1b9414610091578063e2842d79146100a4575b600080fd5b61006461005f3660046104b8565b6100b9565b005b61007961007436600461048a565b61015e565b60405161008893929190610604565b60405180910390f35b61006461009f3660046104b8565b61026a565b6100ac61038f565b60405161008891906105a4565b33600090815260208190526040902060010154600160a01b900460ff166100fb5760405162461bcd60e51b81526004016100f29061066e565b60405180910390fd5b336000908152602081815260409091208251610119928401906103f1565b50336001600160a01b03167fd6136f3cad7c60bfc24bbf1548f39f766ca8bce104bf9adde3deb6237dec51df8260405161015391906105f1565b60405180910390a250565b60606000806000806000866001600160a01b03166001600160a01b031681526020019081526020016000206040518060600160405290816000820180546101a49061069c565b80601f01602080910402602001604051908101604052809291908181526020018280546101d09061069c565b801561021d5780601f106101f25761010080835404028352916020019161021d565b820191906000526020600020905b81548152906001019060200180831161020057829003601f168201915b5050509183525050600191909101546001600160a01b038116602080840191909152600160a01b90910460ff16151560409283015282519083015192909101519097919650945092505050565b33600090815260208190526040902060010154600160a01b900460ff16156102a45760405162461bcd60e51b81526004016100f290610637565b60408051606081018252828152336020808301829052600183850152600091825281815292902081518051929391926102e092849201906103f1565b506020820151600191820180546040948501511515600160a01b0260ff60a01b196001600160a01b039094166001600160a01b03199283161793909316929092179055815480830183556000929092527fb10e2d527612073b26eecdfd717e6a320cf44b4afac2b0732d9fcbe2b7fa0cf690910180549091163390811790915590517f48cac28ad4dc618e15f4c2dd5e97751182f166de97b25618318b2112aa951a2f906101539084906105f1565b606060018054806020026020016040519081016040528092919081815260200182805480156103e757602002820191906000526020600020905b81546001600160a01b031681526001909101906020018083116103c9575b5050505050905090565b8280546103fd9061069c565b90600052602060002090601f01602090048101928261041f5760008555610465565b82601f1061043857805160ff1916838001178555610465565b82800160010185558215610465579182015b8281111561046557825182559160200191906001019061044a565b50610471929150610475565b5090565b5b808211156104715760008155600101610476565b60006020828403121561049b578081fd5b81356001600160a01b03811681146104b1578182fd5b9392505050565b600060208083850312156104ca578182fd5b823567ffffffffffffffff808211156104e1578384fd5b818501915085601f8301126104f4578384fd5b813581811115610506576105066106d7565b604051601f8201601f1916810185018381118282101715610529576105296106d7565b604052818152838201850188101561053f578586fd5b818585018683013790810190930193909352509392505050565b60008151808452815b8181101561057e57602081850181015186830182015201610562565b8181111561058f5782602083870101525b50601f01601f19169290920160200192915050565b6020808252825182820181905260009190848201906040850190845b818110156105e55783516001600160a01b0316835292840192918401916001016105c0565b50909695505050505050565b6000602082526104b16020830184610559565b6000606082526106176060830186610559565b6001600160a01b0394909416602083015250901515604090910152919050565b60208082526018908201527f5573657220616c726561647920726567697374657265642e0000000000000000604082015260600190565b6020808252601490820152732ab9b2b9103737ba103932b3b4b9ba32b932b21760611b604082015260600190565b6002810460018216806106b057607f821691505b602082108114156106d157634e487b7160e01b600052602260045260246000fd5b50919050565b634e487b7160e01b600052604160045260246000fdfea26469706673582212207f9e53945ce8308f4185f731e37933c7b26f6ebb94e8eb1ea23f96ff564f1e7364736f6c63430008000033",
  "immutableReferences": {},
  "source": "pragma solidity ^0.8.0;\r\n\r\ncontract UserRegistration {\r\n    struct User {\r\n        string name;\r\n        address userAddress;\r\n        bool isRegistered;\r\n    }\r\n\r\n    mapping(address => User) private users;\r\n    address[] private userAddresses;\r\n\r\n    event UserRegistered(address indexed userAddress, string name);\r\n    event UserUpdated(address indexed userAddress, string name);\r\n\r\n    modifier onlyRegistered() {\r\n        require(users[msg.sender].isRegistered, \"User not registered.\");\r\n        _;\r\n    }\r\n\r\n    function registerUser(string memory _name) public {\r\n        require(!users[msg.sender].isRegistered, \"User already registered.\");\r\n\r\n        users[msg.sender] = User({\r\n            name: _name,\r\n            userAddress: msg.sender,\r\n            isRegistered: true\r\n        });\r\n        userAddresses.push(msg.sender);\r\n\r\n        emit UserRegistered(msg.sender, _name);\r\n    }\r\n\r\n    function updateUser(string memory _name) public onlyRegistered {\r\n        users[msg.sender].name = _name;\r\n        emit UserUpdated(msg.sender, _name);\r\n    }\r\n\r\n    function getUser(address _userAddress) public view returns (string memory name, address userAddress, bool isRegistered) {\r\n        User memory user = users[_userAddress];\r\n        return (user.name, user.userAddress, user.isRegistered);\r\n    }\r\n    \r\n    function getAllUsers() public view returns (address[] memory) {\r\n        return userAddresses;\r\n    }\r\n}\r\n",
  "sourcePath": "C:\\Users\\VRAJ\\cloud-byte\\contracts\\UserRegistration.sol",
  "compiler": {
    "name": "solc",
    "version": "0.8.0+commit.c7dfd78e.Emscripten.clang"
  },
  "schemaVersion": "3.4.16",
  "updatedAt": "2024-09-28T06:10:39.067Z",
  "devdoc": {
    "kind": "dev",
    "methods": {},
    "version": 1
  },
  "userdoc": {
    "kind": "user",
    "methods": {},
    "version": 1
  }
}